{
  "transactions": [
    {
      "hash": "0xac3c7e9e8f6bde21f76c6e557a06f7f9da362324e75e86a5698c8f085e587a87",
      "transactionType": "CALL",
      "contractName": "LinkToken",
      "contractAddress": "0x779877a7b0d9e8603169ddbd7836e478b4624789",
      "function": "transferAndCall(address,uint256,bytes)",
      "arguments": [
        "0x9DdfaCa8183c41ad55329BdeeD9F6A8d53168B1B",
        "3000000000000000000",
        "0xd434666cd52943114b577db9d891c96c2fe86938ddae121059fde58d7ac04f5b"
      ],
      "transaction": {
        "from": "0x667c1abd4e25be048b8217f90fc576780cca8218",
        "to": "0x779877a7b0d9e8603169ddbd7836e478b4624789",
        "gas": "0x1c1ff",
        "value": "0x0",
        "input": "0x4000aea00000000000000000000000009ddfaca8183c41ad55329bdeed9f6a8d53168b1b00000000000000000000000000000000000000000000000029a2241af62c000000000000000000000000000000000000000000000000000000000000000000600000000000000000000000000000000000000000000000000000000000000020d434666cd52943114b577db9d891c96c2fe86938ddae121059fde58d7ac04f5b",
        "nonce": "0x52",
        "chainId": "0xaa36a7"
      },
      "additionalContracts": [],
      "isFixedGasLimit": false
    }
  ],
  "receipts": [
    {
      "status": "0x1",
      "cumulativeGasUsed": "0x1619379",
      "logs": [
        {
          "address": "0x779877a7b0d9e8603169ddbd7836e478b4624789",
          "topics": [
            "0xddf252ad1be2c89b69c2b068fc378daa952ba7f163c4a11628f55a4df523b3ef",
            "0x000000000000000000000000667c1abd4e25be048b8217f90fc576780cca8218",
            "0x0000000000000000000000009ddfaca8183c41ad55329bdeed9f6a8d53168b1b"
          ],
          "data": "0x00000000000000000000000000000000000000000000000029a2241af62c0000",
          "blockHash": "0xd25d1d597d0e78bd7782df6f1e9f1d8c2e0dfab080bf1dbb8e48fa63086790db",
          "blockNumber": "0x7eb273",
          "blockTimestamp": "0x68207c1c",
          "transactionHash": "0xac3c7e9e8f6bde21f76c6e557a06f7f9da362324e75e86a5698c8f085e587a87",
          "transactionIndex": "0x80",
          "logIndex": "0x1a0",
          "removed": false
        },
        {
          "address": "0x779877a7b0d9e8603169ddbd7836e478b4624789",
          "topics": [
            "0xe19260aff97b920c7df27010903aeb9c8d2be5d310a2c67824cf3f15396e4c16",
            "0x000000000000000000000000667c1abd4e25be048b8217f90fc576780cca8218",
            "0x0000000000000000000000009ddfaca8183c41ad55329bdeed9f6a8d53168b1b"
          ],
          "data": "0x00000000000000000000000000000000000000000000000029a2241af62c000000000000000000000000000000000000000000000000000000000000000000400000000000000000000000000000000000000000000000000000000000000020d434666cd52943114b577db9d891c96c2fe86938ddae121059fde58d7ac04f5b",
          "blockHash": "0xd25d1d597d0e78bd7782df6f1e9f1d8c2e0dfab080bf1dbb8e48fa63086790db",
          "blockNumber": "0x7eb273",
          "blockTimestamp": "0x68207c1c",
          "transactionHash": "0xac3c7e9e8f6bde21f76c6e557a06f7f9da362324e75e86a5698c8f085e587a87",
          "transactionIndex": "0x80",
          "logIndex": "0x1a1",
          "removed": false
        },
        {
          "address": "0x9ddfaca8183c41ad55329bdeed9f6a8d53168b1b",
          "topics": [
            "0x1ced9348ff549fceab2ac57cd3a9de38edaaab274b725ee82c23e8fc8c4eec7a",
            "0xd434666cd52943114b577db9d891c96c2fe86938ddae121059fde58d7ac04f5b"
          ],
          "data": "0x000000000000000000000000000000000000000000000000000000000000000000000000000000000000000000000000000000000000000029a2241af62c0000",
          "blockHash": "0xd25d1d597d0e78bd7782df6f1e9f1d8c2e0dfab080bf1dbb8e48fa63086790db",
          "blockNumber": "0x7eb273",
          "blockTimestamp": "0x68207c1c",
          "transactionHash": "0xac3c7e9e8f6bde21f76c6e557a06f7f9da362324e75e86a5698c8f085e587a87",
          "transactionIndex": "0x80",
          "logIndex": "0x1a2",
          "removed": false
        }
      ],
      "logsBloom": "0x00000004000000000002000000000000000000000020000000000000020000000000000000000000000000000000000000000000000000000000000000000000000000000000000000000088000000000000000000000000000020001020000008000000000000000000000000000000000000000000000000000010000040000000000000000000000000010008800000000020000000000000000000000000000000000000000000000000010000000000000000000000008004000000000000000002000000000000000000000000000000000000000100000000000000000010000000000000800000000000000000000000000000000000000800000000",
      "type": "0x2",
      "transactionHash": "0xac3c7e9e8f6bde21f76c6e557a06f7f9da362324e75e86a5698c8f085e587a87",
      "transactionIndex": "0x80",
      "blockHash": "0xd25d1d597d0e78bd7782df6f1e9f1d8c2e0dfab080bf1dbb8e48fa63086790db",
      "blockNumber": "0x7eb273",
      "gasUsed": "0x133b1",
      "effectiveGasPrice": "0xf4251",
      "from": "0x667c1abd4e25be048b8217f90fc576780cca8218",
      "to": "0x779877a7b0d9e8603169ddbd7836e478b4624789",
      "contractAddress": null
    }
  ],
  "libraries": [],
  "pending": [],
  "returns": {},
  "timestamp": 1746959389,
  "chain": 11155111,
  "commit": "c299f7b"
}